:020000040800F2
:100000000008002089010008E5010008E50100085A
:10001000E5010008E5010008E50100080000000016
:10002000000000000000000000000000E5010008E2
:10003000E501000800000000E5010008E5010008F6
:10004000E5010008E5010008E5010008E5010008F8
:10005000E5010008E5010008E5010008E5010008E8
:10006000E5010008E5010008E5010008E5010008D8
:10007000E5010008E5010008E5010008E5010008C8
:10008000E5010008E5010008E5010008E5010008B8
:10009000E5010008E5010008E5010008E5010008A8
:1000A000E5010008E5010008E5010008E501000898
:1000B000E5010008E5010008E5010008E501000888
:1000C000E5010008E5010008E5010008E501000878
:1000D000E5010008E5010008E5010008E501000868
:1000E000E5010008E5010008E5010008E501000858
:1000F000E5010008E5010008E5010008E501000848
:10010000E5010008E5010008E5010008E501000837
:10011000E5010008E5010008E5010008E501000827
:10012000E5010008E5010008E5010008E501000817
:10013000E5010008E5010008E5010008E501000807
:10014000E5010008E5010008E5010008E5010008F7
:10015000E5010008E5010008E5010008E5010008E7
:10016000E5010008E5010008E5010008E5010008D7
:10017000E5010008E5010008E5010008E5010008C7
:10018000E5010008E501000880B582B000AF104B22
:100190007B60104B3B6007E03B681A1D3A607A6851
:1001A000111D796012681A603A680B4B9A42F3D3BA
:1001B0000A480B494FF000028842B8BF40F8042BB0
:1001C000FFF6FAAF00F012F80837BD4680BD00BF59
:1001D000E4040008000000200000002000000020CF
:1001E0000000002080B400AFFEE700BF80B582B001
:1001F00000AF0820012100F08BF800F04BF8114B04
:100200007B6000233B6006E03868796800F020F8E6
:100210003B6801333B603B68032BF5DD0A48012155
:1002200000F022F90346012B08D17A68074BA3FBA3
:100230000213DB087A6813447B60E2E7014B7B60C2
:10024000DFE700BFFFFF050000000240CDCCCCCCB3
:1002500080B582B000AF786039600C4B7A6853F893
:1002600022309BB20A48194600F018F9386800F0AD
:100270003FF8064B7A6853F822309BB2044819467F
:1002800000F01AF90837BD4680BD00BFD40400084D
:10029000000C024080B582B000AF4FF470433B6069
:1002A00001233B7102237B710023BB710023FB718F
:1002B0003B460D48194600F049F80120012100F0A5
:1002C00027F801233B6000233B7102237B7100234D
:1002D000BB710223FB713B460448194600F036F817
:1002E0000837BD4680BD00BF000C02400000024040
:1002F00080B483B000AF786000BF7B685A1E7A601C
:10030000002BFAD10C37BD465DF8047B704700BF67
:1003100080B483B000AF78600B46FB70FB78002B95
:1003200006D0094B084A116B7A680A431A6306E043
:10033000054B054A116B7A68D2430A401A630C37A1
:10034000BD465DF8047B70470038024080B487B03A
:1003500000AF7860396000237B6100233B6100239C
:10036000FB6000237B6176E07B69012202FA03F3E4
:100370003B613B681A683B691340FB60FA683B6964
:100380009A4265D17B681A687B695B00032101FA98
:1003900003F3DB431A407B681A607B681A683B688A
:1003A0001B7919467B695B0001FA03F31A437B68EA
:1003B0001A603B681B79012B03D03B681B79022B29
:1003C0002ED17B689A687B695B00032101FA03F3F5
:1003D000DB431A407B689A607B689A683B685B796C
:1003E00019467B695B0001FA03F31A437B689A6044
:1003F0007B685A687B699BB2012101FA03F3DB43F6
:100400001A407B685A607B685A683B689B7919463A
:100410007B699BB201FA03F39BB21A437B685A6073
:100420007B68DA687B699BB25B00032101FA03F306
:10043000DB431A407B68DA607B68DA683B68DB790B
:1004400019467B695B0001FA03F31A437B68DA60A3
:100450007B6901337B617B690F2B85D91C37BD46D6
:100460005DF8047B704700BF80B485B000AF786052
:100470000B467B800023FB737B681A697B881340E3
:10048000002B02D00123FB7301E00023FB73FB7BF5
:1004900018461437BD465DF8047B704780B483B0BE
:1004A00000AF78600B467B807B687A881A830C37B4
:1004B000BD465DF8047B704780B483B000AF7860C0
:1004C0000B467B807B687A885A830C37BD465DF883
:1004D000047B704700800000001000000020000036
:0404E00000400000D8
:0400000508000000EF
:00000001FF
